:1000000007308A00472F0000FF00030E8301A10084
:100010000A08A0008A010408A2007708A300780853
:10002000A4007908A5007A08A600831383128C30F7
:100030008400001C1D280C182E2822088400230888
:10004000F7002408F8002508F9002608FA0020081F
:100050008A00210E8300FF0E7F0E09008A110A120A
:1000600045280A108A100A118207C034F934A434D2
:10007000B034993492348234F834803490348834F3
:100080008334C634A13486348E34BB0ABC0ABD0A1C
:100090008E010B308F00DC308E000C108A110A129A
:1000A0001D280830F8000430F700F70B5528871199
:1000B000A7112708831687000330F700F70B5E2887
:1000C0008312D00D0712031C6B28271627088316EE
:1000D00087006F28831227122708831687000000E5
:1000E0008312A7152708831687008312871D762899
:1000F000F80B53280430F700F70B7C288711A71161
:100100002708831687000000831227162708831606
:1001100087000330F700F70B8B280330F700F70B4D
:100120008F288312A7152708831687008312871D3F
:100130009728F8010330F700F70B9C28071A78146A
:100140008711A71127088316870083120712271229
:10015000270883168700831208000830D20077082A
:10016000D30027162708831687000330F700F70B04
:10017000B7288312A7152708831687008312871DC7
:10018000BF28071A0314071E0310F80D0430F700E8
:10019000F70BC828A7112708831687008312871139
:1001A000D20BB12827162708831687000330F700E3
:1001B000F70BD8288312071253080319E4282712D3
:1001C00027088316870083120000A71527088316C7
:1001D00087008312871DEA280430F700F70BEE280A
:1001E0008711A7112708831687000330F700F70B44
:1001F000F728831207122712270883168700831215
:1002000008000930CD002716270883168700043020
:10021000F700F70B09298312A71527088316870013
:100220000330F700F70B1229831207122712270851
:10023000831687000430F700F70B1C2983128711FF
:10024000A711270883168700D0308312D0005120D1
:10025000D001512027162708831687000430F700A5
:10026000F70B30298312A715270883168700033060
:10027000F700F70B39298312871D3C290712271233
:100280002708831687000430F700F70B45298312EF
:100290008711A711270883168700D1308312D00059
:1002A0005120CE014D084E020318612931304E070E
:1002B000840083130130F700AD2078088000CE0A57
:1002C0005229F701AD207808CE002712270883169F
:1002D000870000008312A715270883168700831262
:1002E000871D70290430F700F70B74297729000067
:1002F00027162708831687000430F700F70B7E299E
:100300008312390830020319E5290130CD00271680
:100310002708831687000430F700F70B8D29831216
:10032000A7152708831687000330F700F70B9629D7
:100330008312071227122708831687000430F7005C
:10034000F70BA02983128711A711270883168700AE
:10035000D0308312D0005120D0015120CE014E0860
:10036000083C031CC929CD080319BF2928304E07B2
:10037000840083130008CF00D0005120C7293130FA
:100380004E07840083130008CF00D0005120CE0A0E
:10039000AF29271227088316870000008312A715AC
:1003A0002708831687008312871DD4290430F7009D
:1003B000F70BD829DB2900002716270883168700AA
:1003C0000430F700F70BE2298312080027162708EC
:1003D000831687000430F700F70BEC298312A7156A
:1003E0002708831687000330F700F70BF5298312DF
:1003F000071227122708831687000430F700F70B2F
:10040000FF2983128711A711270883168700D03090
:100410008312D0005120D0015120271627088316BF
:1004200087000430F700F70B132A8312A71527085B
:10043000831687000330F700F70B1C2A8312871DF1
:100440001F2A071227122708831687000430F70097
:10045000F70B282A83128711A71127088316870014
:10046000D1308312D0005120CD014D08073C031C30
:10047000442A31304D07840083130130F700AD204A
:1004800078088000CD0A352AF701AD207808CD0024
:10049000271227088316870000008312A715270854
:1004A000831687008312871D532A0430F700F70B49
:1004B000572A5A2A00002716270883168700043077
:1004C000F700F70B612A831208004E080739F7007E
:1004D0004E0CF800F80CF80C1F30F805780850079F
:1004E0008400831351188317F801F80AF70A792A50
:1004F000F80DF70B782ACF080319812A78088004B1
:10050000842AF8097808800508004E080739F700A2
:100510004E0CF800F80CF80C1F30F80578084F075F
:1005200084008313501883170008F800F70A992AEB
:10053000F80CF70B982A08004E308400831300084B
:100540000319AF2A0630F800F701F70BA52AF80BBC
:10055000A42A7B30F700F70BAB2A800BA22A0800F5
:10056000D0015008073C031CCF2ACF1BB92A071320
:10057000BA2A071727132708831687008312A712A2
:1005800027088316870083128712A712270883166D
:100590008700831287160310CF0DD00AB12A0800F6
:1005A000BE013E08033C031C072BA7132708831634
:1005B0008700831287133F303E07840083130008AF
:1005C000CE00CF00B02243303E07840083130008E2
:1005D000CE00CF00B022A71327088316870083120E
:1005E00087170130CE009C22A713270883168700A7
:1005F00083128713FF30CF00B022CF01B022A713A0
:1006000027088316870083128717BE0AD12A08009D
:100610004D08CE000130CF00D1018030D0006522DE
:100620004D08CE00D001CF0185227818402B143020
:10063000CE009C224D08CE000130CF00D101803089
:10064000D00065224D08CE00D001CF018522781858
:100650003D2B4D08CE000130CF00D1018030D000BD
:1006600065224D08CE00D001CF01852278183A2BA3
:10067000D022292B0130F800422B0030F800422B09
:100680000030F80008003030CD000823F8080319C6
:10069000502BBA0ABA1B502B3A08053C031CBA016E
:1006A0008A110A12C92F4B084902031C662B031D2D
:1006B0005D2B48084A020318662B4C18612B8910E1
:1006C000622B891483168910692B83128910831673
:1006D000891083128A110A12D62FF801F901F70145
:1006E000FA015208031D772B51080319912B103082
:1006F000D3000310CF0DD00DF70DFA0D52087A027A
:10070000031D842B51087702031C8D2B5108F7021F
:10071000031CFA035208FA020314F80DF90DD30B67
:10072000792B080036080F393120F800C200360E48
:10073000F7000F30F70577083120F800C1003508C1
:100740000F3931207F39C000350EF7000F30F70523
:1007500077083120F800BF00080032080F39312037
:10076000F800C200320EF7000F30F705770831208D
:10077000F800C10033080F3931207F39C000330E33
:10078000F7000F30F70577083120F800BF000800A8
:100790003B08093C031C382D9F149F18CD2B1E08C5
:1007A000FA0083161E088312CD007A08CE004E0888
:1007B000D0004D08CF008E30F7005008F8004F08E9
:1007C000F900FA01F808031DEF2B7908F800F90188
:1007D0000830F702F808031DEF2BF701F72B031081
:1007E000F81BF62BF90DF80DF703EF2BF8137A0829
:1007F000D2007908D1007808D0007708CF00AA305D
:10080000D600F130D5000230D4008030D3004F083C
:100810000319CC2CDB0053080319CC2CDB02031C7E
:10082000162C7F30DB070318CC2C1C2C8130DB020C
:10083000031CCC2C0319CC2C5B08F700F801F90140
:10084000FA01DA015008D900D9175108D800520826
:10085000D7001930DB005608D70203183F2C0130AF
:10086000D80203183F2CD90203183F2CDA020318D0
:100870003F2CDA0AD90AD80A5608D707712C55082E
:10088000D80203185A2C0130D90203185A2CDA0264
:1008900003185A2CDA0AD90A5508D8075608D70778
:1008A000031C712CD80A031D712CD90A031D712C4D
:1008B000DA0A712C54088038D9020318702C0130E0
:1008C000DA020318702CDA0A54088038D907550860
:1008D000D807031C4E2CD90A031D4E2CDA0A4E2CC5
:1008E0007A14DB0B742C7F2C0310D70DD80DD90D87
:1008F000DA0D0310FA0DF90DF80DDC0D2B2C5C1C34
:10090000872C0310F80CF90CFA0CDC0C8A2CF7037A
:100910000319CC2CDC1BB32C0310D70DD80DD90D2B
:10092000DA0D5608D70203189F2C0130D80203189D
:100930009F2CD90203189F2CDA02031CC22C5508E5
:10094000D8020318AA2C0130D9020318AA2CDA0203
:10095000031CC22C54088038D9020318B32C013070
:10096000DA02031CC22CFA0A031DC22CF90A031D69
:10097000C22CF80A031DC22CF70A0319CC2CF80C60
:10098000F90CFA0C5008DB005408DB06DB1FCA2CFC
:10099000F817D02CF813D02CF701F801F901FA015F
:1009A0007A08D0007908CF007808CE007708CD000B
:1009B0008E30F7004D08F7024E08F9004F08F80096
:1009C000F917F7080319EF2C0310F908031DEB2C96
:1009D000F8080319EF2CF90CF80CF70BE42CCE1FD8
:1009E000F62CF809F909F80A0319F90A7908C90077
:1009F0007808C800C630C2009C30C1004908D00049
:100A00004808CF00D2010A30D1006D237708CD000D
:100A10007A08CE00D0007708CF00D2010A30D1008A
:100A20006D237708CD007A08CE00FA0077083120D0
:100A3000F800C0004908D0004808CF00D2010A30B1
:100A4000D1006D237908CE007808CD007908D00058
:100A50007808CF00D2010A30D1006D237708CD008D
:100A60007A08CE00FA0077083120F800BF00462D42
:100A70003B08133C031C3E2D9223462D3B081D3C96
:100A8000031C442DAD23462D1E30BB028A110A12D1
:100A9000D72F5408F80153020318512D5308F700BB
:100AA0005D2DF7010830D500D30DF70D54087702FE
:100AB0000318F700F80DD50B542D08004D0ED1008A
:100AC0000F30D1054D080F39D0005108D3000A303E
:100AD000D400F701F801530803105418F707F70C76
:100AE000F80CD418F707F70CF80C5419F707F70CA3
:100AF000F80CD419F707F70CF80C541AF707F70C91
:100B0000F80CD41AF707F70CF80C541BF707F70C7E
:100B1000F80CD41BF707F70CF80C50087807CF0037
:100B2000CE08031D952DCF0A962DCF034F08D30075
:100B30000A30D40049257808D1004F08D3000A3084
:100B4000D40049257708D000510EF700F030F705A2
:100B500077085004D2005208F8000800271627082A
:100B6000831687000430F700F70BB42D8312A71506
:100B70002708831687000330F700F70BBD2D83127B
:100B8000071227122708831687000430F700F70B97
:100B9000C72D83128711A711270883168700D0302D
:100BA0008312D00051204D08D00051204E08D000B3
:100BB0005120271227088316870000008312A715EB
:100BC0002708831687008312871DE42D0430F70061
:100BD000F70BE82DEB2D000027162708831687005A
:100BE0000430F700F70BF22D831208003C08043C98
:100BF000031C182F3A0B442E3130CD000823F8087F
:100C000003190C2ECB08031D0C2E4A08623C031C52
:100C10000C2ECA0A0319CB0A3230CD000823F8087B
:100C200003191C2ECA08031D182ECB0803191C2EED
:100C30004A080319CB03CA03BF30C2004B08D000D7
:100C40004A08CF00D2010A30D1006D237708CD00C9
:100C50007A08CE00FA0077083120F800C1004B086E
:100C6000D0004A08CF00D2010A30D1006D237908A4
:100C7000CE007808CD007908FA0078083120F80015
:100C8000C000BF30BF00172F3A08023C031D792E69
:100C90003130CD000823F8080319602E3508313CA7
:100CA000031D552E0130B5005B2E3508CD00CE0159
:100CB0005E257808B5000430CD003508CE00AE259D
:100CC0003230CD000823F8080319772E350B6B2E30
:100CD0003130B500722E3508CD000130CE005E25D2
:100CE0007808B5000430CD003508CE00AE2592233B
:100CF000172F3A08033C031DAE2E3130CD000823D8
:100D0000F8080319952E3608123C031D8A2E01306F
:100D1000B600902E3608CD00CE015E257808B600CC
:100D20000530CD003608CE00AE253230CD00082388
:100D3000F8080319AC2E360BA02E1230B600A72EE1
:100D40003608CD000130CE005E257808B6000530AB
:100D5000CD003608CE00AE259223172F3A08043C6A
:100D6000031DE32E3130CD000823F8080319C92EE6
:100D70003308233C031DBE2EB301C42E3308CD001F
:100D8000CE015E257808B3000230CD003308CE00D6
:100D9000AE253230CD000823F8080319E12EB30840
:100DA000031DD52E2330B300DC2E3308CD000130D7
:100DB000CE005E257808B3000230CD003308CE00A7
:100DC000AE25AD23172F3A08053C031D172F3130F0
:100DD000CD000823F8080319FE2E3208593C031DE4
:100DE000F32EB201F92E3208CD00CE015E2578082F
:100DF000B2000130CD003208CE00AE253230CD0039
:100E00000823F8080319162FB208031D0A2F5930BA
:100E1000B200112F3208CD000130CE005E257808D7
:100E2000B2000130CD003208CE00AE25AD23442FF4
:100E30003C08093C031C422F3A0B222FFF30C10013
:100E4000C000412F3A08023C031D2A2FFF30C0008A
:100E5000BF00412F3A08033C031D322FFF30C20070
:100E6000C100412F3A08043C031D3A2FFF30C00057
:100E7000BF00412F3A08053C031D412FFF30C2003F
:100E8000C100442F0A30BC028A110A12D92F03086C
:100E90001F398300FF30A700BA014C1083160317D7
:100EA0000908C039890003131F129F12003003176D
:100EB000880083128701880189018313503003134E
:100EC000A8005830A9001430AA000830AB00053043
:100ED000AC000630AD002230AE009030AF0095304F
:100EE000B0003030B100B2001030B3000830B400B0
:100EF0002030B5000230B6002030B7009030B80086
:100F00009630B900FF30BF00C000C100C2000830F9
:100F1000C3000430C4000230C5000130C600C70160
:100F2000FF30831687008312A700831609148910E7
:100F30000911891183121F139F1783169F1783129C
:100F40001F14831603170908C039890003131F12E1
:100F50009F122030031788001430F8008312031307
:100F60001F08C33978049F00C901C801CB011E3096
:100F7000CA000121353090008E010B308F00DC302B
:100F80008E00C0308B0483160C1483120121E621DD
:100F9000432BBA08031DD82F3D08093C0318D52F51
:100FA0000A30BD02E6210130CC06532BC82BD92FC5
:080FB000F62DD022C82F6300CA
:04400E00E22FFF3F5F
:00000001FF
;PIC16F887
;CRC=BBB8  CREATED="09-Apr-24 13:05"
